:020000040800F2
:10000000B8040020010100086F110008F910000871
:100010006D1100086D0100084D140008000000007B
:100020000000000000000000000000007311000844
:10003000A7010008000000007111000875110008F8
:100040001B0100081B0100081B0100081B01000820
:100050001B0100081B0100081B0100081B01000810
:100060001B0100081B0100081B0100081B01000800
:100070001B0100081B0100081B0100081B010008F0
:10008000710100081B0100081B0100081B0100088A
:100090001B0100081B0100081B0100081B010008D0
:1000A0001B0100081B0100081B0100081B010008C0
:1000B0001B0100081B0100081B0100081B010008B0
:1000C0001B0100081B0100081B0100081B010008A0
:1000D0001B0100081B010008411400081B01000857
:1000E0001B0100081B0100081B010008DFF80CD0F1
:1000F00000F02AF800480047D9140008B80400208E
:100100000648804706480047FEE7FEE7FEE7FEE7B1
:10011000FEE7FEE7FEE7FEE7FEE7FEE7C7110008A1
:10012000ED000008D2B201E000F8012B491EFBD21D
:1001300070470022F6E710B513460A4604461946F2
:10014000FFF7F0FF204610BD064C074D06E0E068C3
:1001500040F0010394E8070098471034AC42F6D30E
:10016000FFF7C8FF80150008A0150008FEE7000093
:10017000014800F067B800007000002030B590F82A
:1001800040500124AC40C56B6C60046863604368F8
:10019000102B036803D099600068C26030BD9A607C
:1001A0000068C16030BD70477047000010B590F81E
:1001B00021100024022903D00421816301243DE0A1
:1001C00001680A6822F00E020A6001680A6822F0DB
:1001D00001020A601A4A0168914201D1012121E01D
:1001E000174A1432914201D110211BE0144A2832DF
:1001F000914201D1891515E0114A3C32914201D159
:1002000089140FE00E4A5032914202D14FF48031EE
:1002100008E00B4A6432914202D14FF4801101E0B0
:100220004FF08071064A083A5160012180F8211090
:10023000002180F82010416B01B18847204610BD95
:10024000080002402DE9F05FC16B0C6801680B6883
:10025000D0F840C0042202FA0CF2494DDFF824A184
:10026000494E4A4FDFF828B1DFF828E122422CD06E
:100270005A072AD50A68920603D40A6822F00402B3
:100280000A600168A94201D1042219E0514501D157
:10029000402215E0B14202D14FF4806210E0B94231
:1002A00002D14FF480420BE0594502D14FF4802235
:1002B00006E0714502D14FF4800201E04FF0806208
:1002C0002F4908394A60C16A3BE04FF0020808FA3A
:1002D0000CF818EA040F4FF000094FF0010235D076
:1002E0005FEA837832D50B689B0605D40B6823F050
:1002F0000A030B6080F821200168A94201D1022283
:1003000019E0514501D1202215E0B14202D14FF44C
:10031000007210E0B94202D14FF400520BE059458F
:1003200002D14FF4003206E0714502D14FF40012C1
:1003300001E04FF00072124908394A6080F82090BD
:10034000816A00291AD0BDE8F05F0847082505FA40
:100350000CF5254212D01B0710D50B6823F00E03B5
:100360000B6090F84010C36B02FA01F15960826390
:1003700080F8212080F82090016BE2E7BDE8F09F33
:10038000080002401C0002403000024044000240CD
:10039000580002406C00024030B528B308C8134929
:1003A00014221944B1FBF2F18900C1631049816341
:1003B000022141771A6843F6F0718A43D0E90014AC
:1003C0002143D0E902452C43214304692143446978
:1003D00021438469214311431960002141630122B3
:1003E00042770177084630BD012030BDF8FFFDBFE0
:1003F0000000024070B5044690F820000025012856
:100400000CD0012084F8200094F821600020012EF7
:1004100006D084F820000225284670BD022070BD59
:10042000022684F82160A0632068066826F0010691
:1004300006602046FFF7A2FEE06A002820680168F7
:1004400002D041F00E0106E021F0040101602068B5
:10045000016841F00A0101602068016841F0010172
:100460000160D9E72DE9F84FDFF8B891002409F1D0
:10047000040A0AF1040B23460F270BF1040EC9E00E
:100480000125A5402A40AA427DD1674ED1F804C07B
:10049000ACEB0608B44532D014DCBCF1030F3AD003
:1004A00009DCBCF1000F2AD0BCF1010F1CD0BCF15B
:1004B000020F31D11DE0BCF1110F17D0BCF1120FAA
:1004C0002AD119E0B8F5881F19D006DCB8F5803FAD
:1004D00015D0B8F5801F1FD111E0B8F5001F0ED060
:1004E000B8F5041F18D10AE0CB6815E0CB681B1DD6
:1004F00012E0CB6808330FE0CB680C330CE08B685C
:100500002BB1012B4FF0080303D0456104E0042315
:1005100002E0056100E00023FF2A01D8064601E061
:1005200000F104064FEA840501D9A5F12005D6F8AB
:10053000008007FA05FC28EA0C0803FA05F548EAEA
:100540000508C6F800804D68ED0062D5374DAE69EC
:1005500046F00106AE61AD6924F0030605F0010521
:100560000095334D06EB050CDCF80850A607360F56
:1005700007FA06F825EA0805DFF8B880404503D1F8
:100580004FF0000817E044E0DFF8AC80404502D1AE
:100590004FF001080FE0DFF8A480404502D14FF092
:1005A000020808E0DFF89880404502D14FF00308C8
:1005B00001E04FF0040808FA06F848EA0508CCF80C
:1005C00008804D68D9F80060ED034D4601D516430B
:1005D00000E096432E604D68DAF80060AD035546A2
:1005E00001D5164300E096432E604D68DBF80060AD
:1005F000ED025D4601D5164300E096432E604D683E
:10060000DEF80060AD02754601D5164300E0964362
:100610002E60641C0D682A46E5407FF431AFBDE8CA
:10062000F88F00000004014000001110001002408B
:100630000000014000080140000C01400010014092
:10064000001401400AB1016170470904FBE7000092
:10065000014880687047000000000020024881685F
:10066000027811448160704700000020074810B5EF
:10067000016841F010010160032000F075F80020CE
:1006800000F006F800F024F8002010BD0020024021
:1006900070B50D4D04464FF47A712878B1FBF0F037
:1006A0000A490968B1FBF0F000F0ECFA48B9102CE7
:1006B00007D200222146501E00F036F800206C6060
:1006C00070BD012070BD0000000000200C00002063
:1006D0000C4808B5816941F001018161816901F02F
:1006E00001010091C16941F08051C161C06900F010
:1006F000805000900448416821F0E06141F0806141
:10070000416008BD0010024000000140002809DBE4
:1007100000F01F02012191404009800000F1E0201B
:10072000C0F8001170470000F0B40E4B1B680C4677
:10073000C3F30223C3F10705042D00D90425191DB5
:10074000072901D2002300E0DB1E012606FA05F18D
:10075000491E214099409E40761E16403143F0BC10
:1007600000F07EBE0CED00E0064900F007020868CC
:100770004FF6FF03184040EA0220034A1043086086
:10078000704700000CED00E00000FA052DE9F0478D
:100790000F46050061D0434E306800F00700B842B4
:1007A00009D2306820F0070038433060306800F02C
:1007B0000700B84251D128683B4C810712D5400749
:1007C00003D5606840F4E06060602878000703D5D6
:1007D000606840F4605060606068A96820F0F000D4
:1007E000084360602878C00728D06868012810D0C6
:1007F0002168022810D0890700292EDA616821F0CB
:10080000030101436160FFF723FF804641F288390D
:100810000DE021688903EFE78901EDE7FFF718FF95
:10082000A0EB0801494502D90320BDE8F0876068C4
:10083000696800F00C00B0EB810FEFD1306800F078
:100840000700B8420BD9306820F007003843306009
:10085000306800F00700B84201D00120E5E72878B1
:10086000400705D56068E96820F4E06008436060EF
:100870002878000706D56068296920F4605040EAAE
:10088000C100606000F038F86168084AC1F30311E4
:10089000515CC8400649086006480068FFF7F8FE4A
:1008A0000020C2E700200240001002406815000846
:1008B0000C00002004000020044805490068496835
:1008C000044AC1F30221515CC84070470C0000206B
:1008D000001002407815000804480549006849687E
:1008E000044AC1F3C221515CC84070470C0000208B
:1008F000001002407815000812A185B00FC98DE8DC
:100900000F0014A0144A006804905168134801F0C5
:100910000C03042B10D0082B0ED1C1F38343C90361
:100920001DF803000AD5516804AAC1F34041515C87
:100930000A4A5043B0FBF1F005B0704708494843FC
:10094000FAE7000002030405060708090A0B0C0D6C
:100950000E0F1010010200000010024000127A0079
:1009600000093D002DE9F84F040070D02078C04DFB
:10097000C00749D06868C0F38100012807D06868C3
:10098000C0F38100022809D16868C00306D5286831
:10099000800339D560680028E7D035E06068B0F59D
:1009A000803F0BD010B1B0F5A02F11D0286820F4F3
:1009B00080302860286820F4802002E0286840F415
:1009C00080302860606890B1FFF742FE06460AE07A
:1009D000286840F480202860F0E700BFFFF738FE69
:1009E000801B642873D828688003F7D50CE0FFF7D4
:1009F0002FFE064605E000BFFFF72AFE801B642895
:100A0000F0D828688003F7D420789A4E80074FF0FA
:100A100001094FF0000839D5686810F00C0F07D0B5
:100A20006868C0F38100022809D16868C00306D451
:100A30002868800714D52069012808D110E02069B2
:100A4000B0B1C6F80090FFF703FE074605E00AE1E3
:100A5000FFF7FEFDC01B0228C4D828688007F7D521
:100A60002868616920F0F80040EAC10028600DE0C4
:100A7000C6F80080FFF7ECFD074604E0FFF7E8FD4D
:100A8000C01B022823D828688007F7D420780007E5
:100A90002CD57948A169D9B1C0F80090FFF7D8FDED
:100AA000074604E0FFF7D4FDC01B02280FD8686A90
:100AB0008007F7D571484FF4FA510068B0FBF1F0A8
:100AC000009000BF0098411E0091FAD20EE080E035
:100AD000C0F80080FFF7BCFD074604E0FFF7B8FD53
:100AE000C01B022875D8686A8007F7D420784007B1
:100AF00060D5E8690027C00008D4E86940F080505C
:100B0000E861E869012700F0805000905C480168C6
:100B1000C90513D40168834641F480710160FFF771
:100B200097FD824606E000BFFFF792FDA0EB0A00AA
:100B300064284ED8DBF80000C005F5D5E068012830
:100B40000AD008B1052813D0286A20F001002862D5
:100B5000286A20F0040002E0286A40F001002862C0
:100B6000E06841F2883B98B1FFF772FD82460BE0E6
:100B7000286A40F004002862EEE700BFFFF768FD36
:100B8000A0EB0A0159455AD8286A8007F6D50CE02F
:100B9000FFF75EFD824605E0FFF75AFDA0EB0A0174
:100BA00059454CD8286A8007F6D41FB1E86920F06F
:100BB0008050E861E06988B36968C1F38101022966
:100BC00044D00228C6F8608004D0FFF741FD0446F7
:100BD00038E034E0FFF73CFD074604E0FFF738FD5E
:100BE000C01B02282BD828688001F7D4206AB0F5F2
:100BF000803F05D16868A16820F400300843686030
:100C0000D4E908010843696821F474110843686055
:100C1000C6F86090FFF71CFD044606E025E000BF23
:100C2000FFF716FD001B022809D828688001F7D5B8
:100C30001BE000BFFFF70CFD001B022802D90320B8
:100C4000BDE8F88F28688001F4D40EE00128F7D0C1
:100C50006868226A00F48031914204D1616A00F42C
:100C60007010884201D00120EAE70020E8E7000088
:100C70000010024000004242800442420C0000206A
:100C80000070004010B5401EB0F1807F01D30120FC
:100C900010BD4FF0E02460610F21601700F0E0FB11
:100CA0000020A06107202061002010BD70470000D7
:100CB00070B5026804461068D168536910F00F0FD0
:100CC00053D003F0010501F490762E435FD0C207A4
:100CD00005D0CA0503D5E26B42F00102E263420788
:100CE00005D5DA0703D0E26B42F00202E263820725
:100CF00005D5DA0703D0E26B42F00402E263020793
:100D000007D501F020022A4303D0E26B42F008022B
:100D1000E263E26B002A34D0800604D5880602D54F
:100D2000204600F0B8FA20684069E16BC0F38010FB
:100D300001F008010143204624D000F095FA206814
:100D4000416949061AD5416921F040014161606B52
:100D5000A0B12D494163606BFFF728FA002810D03D
:100D6000606B416BBDE87040084783060FD58B066A
:100D70000DD52046BDE8704000F08DBA2046FFF743
:100D800095FF70BDFFF792FF0020E06370BD030682
:100D90002BD50B0629D594F839002128F6D1A06867
:100DA000B0F5805F01D12069B0B1206A411C216299
:100DB000216800784860E08C401E0004000CE0844C
:100DC000E4D12068C16821F08001C1602068C16859
:100DD00041F04001C16070BD206A0088C0F3080086
:100DE0005060206A801C2062E5E74006F3D5480683
:100DF000F1D5D168204621F04001D160202184F84E
:100E0000391000F078F970BDC911000870B5040000
:100E100004D094F83900002510B106E0012070BD1F
:100E200084F83850204600F023F8242084F8390054
:100E30002068C16821F40051C160204600F072FAB8
:100E40002068016921F4904101612068416921F025
:100E50002A0141612068C16841F40051C160E56325
:100E6000202084F8390084F83A00002070BD00008A
:100E700070B586B00025064600950195029503954C
:100E80000068224988423FD12149C86940F40030B6
:100E9000C861C86900F400300490886940F004001B
:100EA000886188691B4C00F00400049004200090C5
:100EB000022001900320039069462046FFF7D2FAF2
:100EC0000820CDE90005694620460295FFF7CAFAD9
:100ED000124C1148C4E900058020C4E902502020CA
:100EE0002561C4E905502046E561FFF755FA08B1D0
:100EF000FFF75AF974630022114626206662FFF755
:100F000013FC2620FFF702FC06B070BD0044004031
:100F100000100240000801406C00024070000020F8
:100F2000F8B5044690F83A0020283CD1C1B3BAB3D2
:100F300094F83800012836D0012084F83800A162E6
:100F4000A2850025E563222084F83A00636B1748E8
:100F50009862636B1648D862636B16481863606BBF
:100F6000134645630846666B216802463046091DF4
:100F7000FFF740FA206801684168009184F8385012
:100F8000C16841F48071C1602068416941F001018C
:100F900041612068416941F0400141610020F8BD94
:100FA000FFE70120FBE70220F9E700002312000819
:100FB0005F120008D9110008114810B501782A29DC
:100FC0000CD18178232909D142780E484FF4005181
:100FD00062B1012A0FD00CA000F03AFA0849BDE82E
:100FE00010400322A1F14000FFF79ABF0022FFF753
:100FF00029FB0AA0F0E70122FFF724FB0CA0EBE796
:101000005400002000100140496E76616C69642034
:10101000436F6D6D616E64210D0A00004C454420E4
:101020005475726E6564204F46460D0A000000003C
:101030004C4544205475726E6564204F4E0D0A0075
:10104000704700002DE9F843044690F839001F4628
:1010500016460D4620284CD1C5B1BEB194F83800D3
:10106000012846D0012084F838004FF00008C4F869
:101070003C80212084F83900FFF7EAFAA6848146F3
:10108000E684A068B0F5805F03D004E00120BDE8ED
:10109000F883206928B12E465FF0000584F8388077
:1010A0000EE00026FAE78021204600F097F9A0B96B
:1010B000AEB116F8010B21684860E08C401EE08458
:1010C000E08C4B464FF0000200970028EBD14FF028
:1010D0004001204600F082F930B10320D7E735F80F
:1010E000020BC0F30800E6E7202084F83900002056
:1010F000CDE70220CBE77047FEE7000070B586B071
:10110000002418480094019402940394816941F0EA
:1011100020018161816901F020010491816941F020
:1011200004018161816901F004010491816941F048
:101130001001816180690C4E00F010004FF40055E1
:101140000490002229463046FFF77CFA01200095E2
:10115000CDE901040220039069463046FFF782F989
:1011600006B070BD0010024000100140FEE770475D
:1011700070477047FFF772BA30B58FB028216846C4
:10118000FEF7D7FF14210AA8FEF7D3FF01210804B8
:10119000CDE900100024029402250491CDE9075006
:1011A0004FF4E01009906846FFF7DCFB0F20CDE913
:1011B0000A056802CDE90C400E9002210AA8FFF74B
:1011C000E5FA0FB030BD704710B5406A0021C18507
:1011D000C184FFF76BFD10BD70B5446A206840699B
:1011E00094F83910C0F3C0100025212904D118B19A
:1011F000E584204600F046F82068406994F83A10EB
:10120000C0F38010222904D118B1E585204600F0F2
:101210002BF8E06B40F01000E0632046FFF746FD3E
:1012200070BD10B50146406A09680968890613D483
:101230000021C1850168CA6822F48072CA60016811
:101240004A6922F001024A6101684A6922F04002BB
:101250004A61202180F83A10FFF7AEFE10BD10B5AC
:10126000406AFFF7EDFE10BD0168CA6822F4907273
:10127000CA6001684A6922F001024A61202180F8AF
:101280003A1070470168CA6822F0C002CA60202183
:1012900080F83910704710B590F83A10222901D023
:1012A000022010BD82684FF480539A4201D1016937
:1012B00021B1816A9A421BD04AB10AE00268816A70
:1012C0005268C2F308020A80816A891C08E0026938
:1012D00072B10268526802F07F020A70816A491C8A
:1012E0008162C18D491E0904090CC18503D016E035
:1012F00002685268F1E70168CA6822F02002CA60F9
:101300000168CA6822F48072CA6001684A6922F0E2
:1013100001024A61202180F83A10FFF74DFE0020BB
:1013200010BD000070B5044600680169E26821F450
:101330004051114301612169A06808436169084374
:101340002168CA6841F20C639A430243CA6020686C
:101350004169A26921F44071114341611E4920682D
:10136000884202D1FFF7B8FA01E0FFF7A5FA00EBD7
:10137000C00101EB0012606864218000B2FBF0F351
:10138000B3FBF1F36FF018067343B2FBF0F5B2FB59
:10139000F0F605EB8305322303EB0515B5FBF1F5FC
:1013A000B6FBF1F605F0F00505EB0615B2FBF0F61D
:1013B000B2FBF0F0B0FBF1F06FF01802504306EB17
:1013C000800003EB0010B0FBF1F0216800F00F008B
:1013D0002844886070BD0000003801402DE9F041CC
:1013E000984617460E460446069D1DE0681C1BD015
:1013F0002DB1FFF72DF9A0EB0800A84214D9206801
:10140000C16821F4D071C1602068416921F00101F7
:101410004161202084F8390084F83A00002084F8E3
:1014200038000320BDE8F0812068006836EA00003B
:1014300004D00020B842D9D00020F3E70120F9E71A
:101440000148FFF735BC000014000020FEE7000053
:10145000014A024900F023B8C1140008100000201E
:101460000907090E002804DB00F1E02080F80014D1
:10147000704700F00F0000F1E02080F8141D704765
:1014800002E008C8121F08C1002AFAD1704770474D
:10149000002001E001C1121F002AFBD170472DE995
:1014A000F04116460F460446002503E03946B04792
:1014B000641C6D1C20780028F8D12846BDE8F08116
:1014C00013B54FF6FF73012269460248FFF7BAFDD4
:1014D00000981CBD1400002008B5FFF7C7F8FFF7FF
:1014E0004BFEFFF70BFE1548416941F001014161D8
:1014F0004069002200F00100009011461020FFF723
:1015000013F91020FFF702F90E480D490C22016073
:101510004FF4E131416000218160C160C0E90412F3
:101520008161C161FFF772FC07A0FFF791FF0549D8
:10153000032240310348FFF7F3FCFEE700100240AE
:1015400000440040140000205374617274696E6797
:10155000206D79206170706C69636174696F6E2EA3
:101560002E2E0D0A00000000000000000000000008
:101570000102030406070809000000000102030439
:10158000A0150008000000201400000080140008CE
:10159000B415000814000020A404000090140008F2
:1015A0000100000010000000000000000024F40012
:0415B0000000000037
:04000005080000ED02
:00000001FF
